{
  "_format": "hh-sol-artifact-1",
  "contractName": "ChainAyden",
  "sourceName": "contracts/ChainAyden.sol",
  "abi": [
    {
      "inputs": [],
      "stateMutability": "nonpayable",
      "type": "constructor"
    },
    {
      "anonymous": false,
      "inputs": [
        {
          "indexed": true,
          "internalType": "address",
          "name": "owner",
          "type": "address"
        },
        {
          "indexed": true,
          "internalType": "address",
          "name": "approved",
          "type": "address"
        },
        {
          "indexed": true,
          "internalType": "uint256",
          "name": "tokenId",
          "type": "uint256"
        }
      ],
      "name": "Approval",
      "type": "event"
    },
    {
      "anonymous": false,
      "inputs": [
        {
          "indexed": true,
          "internalType": "address",
          "name": "owner",
          "type": "address"
        },
        {
          "indexed": true,
          "internalType": "address",
          "name": "operator",
          "type": "address"
        },
        {
          "indexed": false,
          "internalType": "bool",
          "name": "approved",
          "type": "bool"
        }
      ],
      "name": "ApprovalForAll",
      "type": "event"
    },
    {
      "anonymous": false,
      "inputs": [
        {
          "indexed": true,
          "internalType": "address",
          "name": "from",
          "type": "address"
        },
        {
          "indexed": true,
          "internalType": "address",
          "name": "to",
          "type": "address"
        },
        {
          "indexed": true,
          "internalType": "uint256",
          "name": "tokenId",
          "type": "uint256"
        }
      ],
      "name": "Transfer",
      "type": "event"
    },
    {
      "inputs": [
        {
          "internalType": "address",
          "name": "",
          "type": "address"
        }
      ],
      "name": "addressToTokenId",
      "outputs": [
        {
          "internalType": "uint256",
          "name": "",
          "type": "uint256"
        }
      ],
      "stateMutability": "view",
      "type": "function"
    },
    {
      "inputs": [
        {
          "internalType": "address",
          "name": "to",
          "type": "address"
        },
        {
          "internalType": "uint256",
          "name": "tokenId",
          "type": "uint256"
        }
      ],
      "name": "approve",
      "outputs": [],
      "stateMutability": "nonpayable",
      "type": "function"
    },
    {
      "inputs": [
        {
          "internalType": "address",
          "name": "owner",
          "type": "address"
        }
      ],
      "name": "balanceOf",
      "outputs": [
        {
          "internalType": "uint256",
          "name": "",
          "type": "uint256"
        }
      ],
      "stateMutability": "view",
      "type": "function"
    },
    {
      "inputs": [
        {
          "internalType": "uint256",
          "name": "tokenId",
          "type": "uint256"
        }
      ],
      "name": "generateCharacter",
      "outputs": [
        {
          "internalType": "string",
          "name": "",
          "type": "string"
        }
      ],
      "stateMutability": "view",
      "type": "function"
    },
    {
      "inputs": [
        {
          "internalType": "uint256",
          "name": "tokenId",
          "type": "uint256"
        }
      ],
      "name": "getApproved",
      "outputs": [
        {
          "internalType": "address",
          "name": "",
          "type": "address"
        }
      ],
      "stateMutability": "view",
      "type": "function"
    },
    {
      "inputs": [
        {
          "internalType": "uint256",
          "name": "tokenId",
          "type": "uint256"
        }
      ],
      "name": "getLevel",
      "outputs": [
        {
          "internalType": "string",
          "name": "",
          "type": "string"
        }
      ],
      "stateMutability": "view",
      "type": "function"
    },
    {
      "inputs": [
        {
          "internalType": "uint256",
          "name": "tokenId",
          "type": "uint256"
        }
      ],
      "name": "getTokenURI",
      "outputs": [
        {
          "internalType": "string",
          "name": "",
          "type": "string"
        }
      ],
      "stateMutability": "view",
      "type": "function"
    },
    {
      "inputs": [
        {
          "internalType": "address",
          "name": "owner",
          "type": "address"
        },
        {
          "internalType": "address",
          "name": "operator",
          "type": "address"
        }
      ],
      "name": "isApprovedForAll",
      "outputs": [
        {
          "internalType": "bool",
          "name": "",
          "type": "bool"
        }
      ],
      "stateMutability": "view",
      "type": "function"
    },
    {
      "inputs": [],
      "name": "mint",
      "outputs": [],
      "stateMutability": "nonpayable",
      "type": "function"
    },
    {
      "inputs": [],
      "name": "name",
      "outputs": [
        {
          "internalType": "string",
          "name": "",
          "type": "string"
        }
      ],
      "stateMutability": "view",
      "type": "function"
    },
    {
      "inputs": [
        {
          "internalType": "uint256",
          "name": "tokenId",
          "type": "uint256"
        }
      ],
      "name": "ownerOf",
      "outputs": [
        {
          "internalType": "address",
          "name": "",
          "type": "address"
        }
      ],
      "stateMutability": "view",
      "type": "function"
    },
    {
      "inputs": [
        {
          "internalType": "address",
          "name": "from",
          "type": "address"
        },
        {
          "internalType": "address",
          "name": "to",
          "type": "address"
        },
        {
          "internalType": "uint256",
          "name": "tokenId",
          "type": "uint256"
        }
      ],
      "name": "safeTransferFrom",
      "outputs": [],
      "stateMutability": "nonpayable",
      "type": "function"
    },
    {
      "inputs": [
        {
          "internalType": "address",
          "name": "from",
          "type": "address"
        },
        {
          "internalType": "address",
          "name": "to",
          "type": "address"
        },
        {
          "internalType": "uint256",
          "name": "tokenId",
          "type": "uint256"
        },
        {
          "internalType": "bytes",
          "name": "data",
          "type": "bytes"
        }
      ],
      "name": "safeTransferFrom",
      "outputs": [],
      "stateMutability": "nonpayable",
      "type": "function"
    },
    {
      "inputs": [
        {
          "internalType": "address",
          "name": "operator",
          "type": "address"
        },
        {
          "internalType": "bool",
          "name": "approved",
          "type": "bool"
        }
      ],
      "name": "setApprovalForAll",
      "outputs": [],
      "stateMutability": "nonpayable",
      "type": "function"
    },
    {
      "inputs": [
        {
          "internalType": "bytes4",
          "name": "interfaceId",
          "type": "bytes4"
        }
      ],
      "name": "supportsInterface",
      "outputs": [
        {
          "internalType": "bool",
          "name": "",
          "type": "bool"
        }
      ],
      "stateMutability": "view",
      "type": "function"
    },
    {
      "inputs": [],
      "name": "symbol",
      "outputs": [
        {
          "internalType": "string",
          "name": "",
          "type": "string"
        }
      ],
      "stateMutability": "view",
      "type": "function"
    },
    {
      "inputs": [
        {
          "internalType": "uint256",
          "name": "",
          "type": "uint256"
        }
      ],
      "name": "tokenIdToLevels",
      "outputs": [
        {
          "internalType": "uint256",
          "name": "",
          "type": "uint256"
        }
      ],
      "stateMutability": "view",
      "type": "function"
    },
    {
      "inputs": [
        {
          "internalType": "uint256",
          "name": "tokenId",
          "type": "uint256"
        }
      ],
      "name": "tokenURI",
      "outputs": [
        {
          "internalType": "string",
          "name": "",
          "type": "string"
        }
      ],
      "stateMutability": "view",
      "type": "function"
    },
    {
      "inputs": [
        {
          "internalType": "uint256",
          "name": "tokenId",
          "type": "uint256"
        }
      ],
      "name": "train",
      "outputs": [],
      "stateMutability": "nonpayable",
      "type": "function"
    },
    {
      "inputs": [
        {
          "internalType": "address",
          "name": "from",
          "type": "address"
        },
        {
          "internalType": "address",
          "name": "to",
          "type": "address"
        },
        {
          "internalType": "uint256",
          "name": "tokenId",
          "type": "uint256"
        }
      ],
      "name": "transferFrom",
      "outputs": [],
      "stateMutability": "nonpayable",
      "type": "function"
    }
  ],
  "bytecode": "0x60806040523480156200001157600080fd5b506040518060400160405280600b81526020017f436861696e20417964656e0000000000000000000000000000000000000000008152506040518060400160405280600681526020017f415944454e530000000000000000000000000000000000000000000000000000815250816000908051906020019062000096929190620000b8565b508060019080519060200190620000af929190620000b8565b505050620001cd565b828054620000c69062000197565b90600052602060002090601f016020900481019282620000ea576000855562000136565b82601f106200010557805160ff191683800117855562000136565b8280016001018555821562000136579182015b828111156200013557825182559160200191906001019062000118565b5b50905062000145919062000149565b5090565b5b80821115620001645760008160009055506001016200014a565b5090565b7f4e487b7100000000000000000000000000000000000000000000000000000000600052602260045260246000fd5b60006002820490506001821680620001b057607f821691505b60208210811415620001c757620001c662000168565b5b50919050565b61370980620001dd6000396000f3fe608060405234801561001057600080fd5b506004361061012c5760003560e01c80636352211e116100ad578063a22cb46511610071578063a22cb46514610367578063b88d4fde14610383578063c6a4342f1461039f578063c87b56dd146103cf578063e985e9c5146103ff5761012c565b80636352211e146102895780636511bf2e146102b957806370a08231146102e957806386481d401461031957806395d89b41146103495761012c565b80631249c58b116100f45780631249c58b146101fb57806323b872dd14610205578063368004ed146102215780633bb3a24d1461023d57806342842e0e1461026d5761012c565b806301ffc9a71461013157806306fdde0314610161578063081812fc1461017f578063095ea7b3146101af5780630daefed5146101cb575b600080fd5b61014b60048036038101906101469190611e0a565b61042f565b6040516101589190611e52565b60405180910390f35b610169610511565b6040516101769190611f06565b60405180910390f35b61019960048036038101906101949190611f5e565b6105a3565b6040516101a69190611fcc565b60405180910390f35b6101c960048036038101906101c49190612013565b6105e9565b005b6101e560048036038101906101e09190611f5e565b610701565b6040516101f29190611f06565b60405180910390f35b61020361075f565b005b61021f600480360381019061021a9190612053565b6107f3565b005b61023b60048036038101906102369190611f5e565b610853565b005b61025760048036038101906102529190611f5e565b610963565b6040516102649190611f06565b60405180910390f35b61028760048036038101906102829190612053565b6109cb565b005b6102a3600480360381019061029e9190611f5e565b6109eb565b6040516102b09190611fcc565b60405180910390f35b6102d360048036038101906102ce91906120a6565b610a9d565b6040516102e091906120e2565b60405180910390f35b61030360048036038101906102fe91906120a6565b610ab5565b60405161031091906120e2565b60405180910390f35b610333600480360381019061032e9190611f5e565b610b6d565b6040516103409190611f06565b60405180910390f35b610351610b98565b60405161035e9190611f06565b60405180910390f35b610381600480360381019061037c9190612129565b610c2a565b005b61039d6004803603810190610398919061229e565b610c40565b005b6103b960048036038101906103b49190611f5e565b610ca2565b6040516103c691906120e2565b60405180910390f35b6103e960048036038101906103e49190611f5e565b610cba565b6040516103f69190611f06565b60405180910390f35b61041960048036038101906104149190612321565b610dcd565b6040516104269190611e52565b60405180910390f35b60007f80ac58cd000000000000000000000000000000000000000000000000000000007bffffffffffffffffffffffffffffffffffffffffffffffffffffffff1916827bffffffffffffffffffffffffffffffffffffffffffffffffffffffff191614806104fa57507f5b5e139f000000000000000000000000000000000000000000000000000000007bffffffffffffffffffffffffffffffffffffffffffffffffffffffff1916827bffffffffffffffffffffffffffffffffffffffffffffffffffffffff1916145b8061050a575061050982610e61565b5b9050919050565b60606000805461052090612390565b80601f016020809104026020016040519081016040528092919081815260200182805461054c90612390565b80156105995780601f1061056e57610100808354040283529160200191610599565b820191906000526020600020905b81548152906001019060200180831161057c57829003601f168201915b5050505050905090565b60006105ae82610ecb565b6004600083815260200190815260200160002060009054906101000a900473ffffffffffffffffffffffffffffffffffffffff169050919050565b60006105f4826109eb565b90508073ffffffffffffffffffffffffffffffffffffffff168373ffffffffffffffffffffffffffffffffffffffff161415610665576040517f08c379a000000000000000000000000000000000000000000000000000000000815260040161065c90612434565b60405180910390fd5b8073ffffffffffffffffffffffffffffffffffffffff16610684610f16565b73ffffffffffffffffffffffffffffffffffffffff1614806106b357506106b2816106ad610f16565b610dcd565b5b6106f2576040517f08c379a00000000000000000000000000000000000000000000000000000000081526004016106e9906124c6565b60405180910390fd5b6106fc8383610f1e565b505050565b6060600061070e83610b6d565b60405160200161071e919061294a565b604051602081830303815290604052905061073881610fd7565b6040516020016107489190612a1b565b604051602081830303815290604052915050919050565b610769600761113b565b60006107756007611151565b9050610781338261115f565b600060086000838152602001908152602001600020819055506107ac816107a783610963565b61117d565b80600960003373ffffffffffffffffffffffffffffffffffffffff1673ffffffffffffffffffffffffffffffffffffffff1681526020019081526020016000208190555050565b6108046107fe610f16565b826111f1565b610843576040517f08c379a000000000000000000000000000000000000000000000000000000000815260040161083a90612aaf565b60405180910390fd5b61084e838383611286565b505050565b61085c816114ed565b61089b576040517f08c379a000000000000000000000000000000000000000000000000000000000815260040161089290612b1b565b60405180910390fd5b3373ffffffffffffffffffffffffffffffffffffffff166108bb826109eb565b73ffffffffffffffffffffffffffffffffffffffff1614610911576040517f08c379a000000000000000000000000000000000000000000000000000000000815260040161090890612bad565b60405180910390fd5b6000600860008381526020019081526020016000205490506001816109369190612bfc565b600860008481526020019081526020016000208190555061095f8261095a84610963565b61117d565b5050565b6060600061097083611559565b61097984610701565b60405160200161098a929190612e8c565b60405160208183030381529060405290506109a481610fd7565b6040516020016109b49190612f49565b604051602081830303815290604052915050919050565b6109e683838360405180602001604052806000815250610c40565b505050565b6000806002600084815260200190815260200160002060009054906101000a900473ffffffffffffffffffffffffffffffffffffffff169050600073ffffffffffffffffffffffffffffffffffffffff168173ffffffffffffffffffffffffffffffffffffffff161415610a94576040517f08c379a0000000000000000000000000000000000000000000000000000000008152600401610a8b90612fb7565b60405180910390fd5b80915050919050565b60096020528060005260406000206000915090505481565b60008073ffffffffffffffffffffffffffffffffffffffff168273ffffffffffffffffffffffffffffffffffffffff161415610b26576040517f08c379a0000000000000000000000000000000000000000000000000000000008152600401610b1d90613049565b60405180910390fd5b600360008373ffffffffffffffffffffffffffffffffffffffff1673ffffffffffffffffffffffffffffffffffffffff168152602001908152602001600020549050919050565b6060600060086000848152602001908152602001600020549050610b9081611559565b915050919050565b606060018054610ba790612390565b80601f0160208091040260200160405190810160405280929190818152602001828054610bd390612390565b8015610c205780601f10610bf557610100808354040283529160200191610c20565b820191906000526020600020905b815481529060010190602001808311610c0357829003601f168201915b5050505050905090565b610c3c610c35610f16565b83836116ba565b5050565b610c51610c4b610f16565b836111f1565b610c90576040517f08c379a0000000000000000000000000000000000000000000000000000000008152600401610c8790612aaf565b60405180910390fd5b610c9c84848484611827565b50505050565b60086020528060005260406000206000915090505481565b6060610cc582610ecb565b6000600660008481526020019081526020016000208054610ce590612390565b80601f0160208091040260200160405190810160405280929190818152602001828054610d1190612390565b8015610d5e5780601f10610d3357610100808354040283529160200191610d5e565b820191906000526020600020905b815481529060010190602001808311610d4157829003601f168201915b505050505090506000610d6f611883565b9050600081511415610d85578192505050610dc8565b600082511115610dba578082604051602001610da2929190613069565b60405160208183030381529060405292505050610dc8565b610dc38461189a565b925050505b919050565b6000600560008473ffffffffffffffffffffffffffffffffffffffff1673ffffffffffffffffffffffffffffffffffffffff16815260200190815260200160002060008373ffffffffffffffffffffffffffffffffffffffff1673ffffffffffffffffffffffffffffffffffffffff16815260200190815260200160002060009054906101000a900460ff16905092915050565b60007f01ffc9a7000000000000000000000000000000000000000000000000000000007bffffffffffffffffffffffffffffffffffffffffffffffffffffffff1916827bffffffffffffffffffffffffffffffffffffffffffffffffffffffff1916149050919050565b610ed4816114ed565b610f13576040517f08c379a0000000000000000000000000000000000000000000000000000000008152600401610f0a90612fb7565b60405180910390fd5b50565b600033905090565b816004600083815260200190815260200160002060006101000a81548173ffffffffffffffffffffffffffffffffffffffff021916908373ffffffffffffffffffffffffffffffffffffffff160217905550808273ffffffffffffffffffffffffffffffffffffffff16610f91836109eb565b73ffffffffffffffffffffffffffffffffffffffff167f8c5be1e5ebec7d5bd14f71427d1e84f3dd0314c0f7b2291e5b200ac8c7c3b92560405160405180910390a45050565b6060600082511415610ffa57604051806020016040528060008152509050611136565b600060405180606001604052806040815260200161369460409139905060006003600285516110299190612bfc565b61103391906130bc565b600461103f91906130ed565b67ffffffffffffffff81111561105857611057612173565b5b6040519080825280601f01601f19166020018201604052801561108a5781602001600182028036833780820191505090505b509050600182016020820185865187015b808210156110f6576003820191508151603f8160121c168501518453600184019350603f81600c1c168501518453600184019350603f8160061c168501518453600184019350603f811685015184536001840193505061109b565b505060038651066001811461111257600281146111255761112d565b603d6001830353603d600283035361112d565b603d60018303535b50505080925050505b919050565b6001816000016000828254019250508190555050565b600081600001549050919050565b611179828260405180602001604052806000815250611902565b5050565b611186826114ed565b6111c5576040517f08c379a00000000000000000000000000000000000000000000000000000000081526004016111bc906131b9565b60405180910390fd5b806006600084815260200190815260200160002090805190602001906111ec929190611cfb565b505050565b6000806111fd836109eb565b90508073ffffffffffffffffffffffffffffffffffffffff168473ffffffffffffffffffffffffffffffffffffffff16148061123f575061123e8185610dcd565b5b8061127d57508373ffffffffffffffffffffffffffffffffffffffff16611265846105a3565b73ffffffffffffffffffffffffffffffffffffffff16145b91505092915050565b8273ffffffffffffffffffffffffffffffffffffffff166112a6826109eb565b73ffffffffffffffffffffffffffffffffffffffff16146112fc576040517f08c379a00000000000000000000000000000000000000000000000000000000081526004016112f39061324b565b60405180910390fd5b600073ffffffffffffffffffffffffffffffffffffffff168273ffffffffffffffffffffffffffffffffffffffff16141561136c576040517f08c379a0000000000000000000000000000000000000000000000000000000008152600401611363906132dd565b60405180910390fd5b61137783838361195d565b611382600082610f1e565b6001600360008573ffffffffffffffffffffffffffffffffffffffff1673ffffffffffffffffffffffffffffffffffffffff16815260200190815260200160002060008282546113d291906132fd565b925050819055506001600360008473ffffffffffffffffffffffffffffffffffffffff1673ffffffffffffffffffffffffffffffffffffffff16815260200190815260200160002060008282546114299190612bfc565b92505081905550816002600083815260200190815260200160002060006101000a81548173ffffffffffffffffffffffffffffffffffffffff021916908373ffffffffffffffffffffffffffffffffffffffff160217905550808273ffffffffffffffffffffffffffffffffffffffff168473ffffffffffffffffffffffffffffffffffffffff167fddf252ad1be2c89b69c2b068fc378daa952ba7f163c4a11628f55a4df523b3ef60405160405180910390a46114e8838383611962565b505050565b60008073ffffffffffffffffffffffffffffffffffffffff166002600084815260200190815260200160002060009054906101000a900473ffffffffffffffffffffffffffffffffffffffff1673ffffffffffffffffffffffffffffffffffffffff1614159050919050565b606060008214156115a1576040518060400160405280600181526020017f300000000000000000000000000000000000000000000000000000000000000081525090506116b5565b600082905060005b600082146115d35780806115bc90613331565b915050600a826115cc91906130bc565b91506115a9565b60008167ffffffffffffffff8111156115ef576115ee612173565b5b6040519080825280601f01601f1916602001820160405280156116215781602001600182028036833780820191505090505b5090505b600085146116ae5760018261163a91906132fd565b9150600a85611649919061337a565b60306116559190612bfc565b60f81b81838151811061166b5761166a6133ab565b5b60200101907effffffffffffffffffffffffffffffffffffffffffffffffffffffffffffff1916908160001a905350600a856116a791906130bc565b9450611625565b8093505050505b919050565b8173ffffffffffffffffffffffffffffffffffffffff168373ffffffffffffffffffffffffffffffffffffffff161415611729576040517f08c379a000000000000000000000000000000000000000000000000000000000815260040161172090613426565b60405180910390fd5b80600560008573ffffffffffffffffffffffffffffffffffffffff1673ffffffffffffffffffffffffffffffffffffffff16815260200190815260200160002060008473ffffffffffffffffffffffffffffffffffffffff1673ffffffffffffffffffffffffffffffffffffffff16815260200190815260200160002060006101000a81548160ff0219169083151502179055508173ffffffffffffffffffffffffffffffffffffffff168373ffffffffffffffffffffffffffffffffffffffff167f17307eab39ab6107e8899845ad3d59bd9653f200f220920489ca2b5937696c318360405161181a9190611e52565b60405180910390a3505050565b611832848484611286565b61183e84848484611967565b61187d576040517f08c379a0000000000000000000000000000000000000000000000000000000008152600401611874906134b8565b60405180910390fd5b50505050565b606060405180602001604052806000815250905090565b60606118a582610ecb565b60006118af611883565b905060008151116118cf57604051806020016040528060008152506118fa565b806118d984611559565b6040516020016118ea929190613069565b6040516020818303038152906040525b915050919050565b61190c8383611afe565b6119196000848484611967565b611958576040517f08c379a000000000000000000000000000000000000000000000000000000000815260040161194f906134b8565b60405180910390fd5b505050565b505050565b505050565b60006119888473ffffffffffffffffffffffffffffffffffffffff16611cd8565b15611af1578373ffffffffffffffffffffffffffffffffffffffff1663150b7a026119b1610f16565b8786866040518563ffffffff1660e01b81526004016119d3949392919061352d565b602060405180830381600087803b1580156119ed57600080fd5b505af1925050508015611a1e57506040513d601f19601f82011682018060405250810190611a1b919061358e565b60015b611aa1573d8060008114611a4e576040519150601f19603f3d011682016040523d82523d6000602084013e611a53565b606091505b50600081511415611a99576040517f08c379a0000000000000000000000000000000000000000000000000000000008152600401611a90906134b8565b60405180910390fd5b805181602001fd5b63150b7a0260e01b7bffffffffffffffffffffffffffffffffffffffffffffffffffffffff1916817bffffffffffffffffffffffffffffffffffffffffffffffffffffffff191614915050611af6565b600190505b949350505050565b600073ffffffffffffffffffffffffffffffffffffffff168273ffffffffffffffffffffffffffffffffffffffff161415611b6e576040517f08c379a0000000000000000000000000000000000000000000000000000000008152600401611b6590613607565b60405180910390fd5b611b77816114ed565b15611bb7576040517f08c379a0000000000000000000000000000000000000000000000000000000008152600401611bae90613673565b60405180910390fd5b611bc36000838361195d565b6001600360008473ffffffffffffffffffffffffffffffffffffffff1673ffffffffffffffffffffffffffffffffffffffff1681526020019081526020016000206000828254611c139190612bfc565b92505081905550816002600083815260200190815260200160002060006101000a81548173ffffffffffffffffffffffffffffffffffffffff021916908373ffffffffffffffffffffffffffffffffffffffff160217905550808273ffffffffffffffffffffffffffffffffffffffff16600073ffffffffffffffffffffffffffffffffffffffff167fddf252ad1be2c89b69c2b068fc378daa952ba7f163c4a11628f55a4df523b3ef60405160405180910390a4611cd460008383611962565b5050565b6000808273ffffffffffffffffffffffffffffffffffffffff163b119050919050565b828054611d0790612390565b90600052602060002090601f016020900481019282611d295760008555611d70565b82601f10611d4257805160ff1916838001178555611d70565b82800160010185558215611d70579182015b82811115611d6f578251825591602001919060010190611d54565b5b509050611d7d9190611d81565b5090565b5b80821115611d9a576000816000905550600101611d82565b5090565b6000604051905090565b600080fd5b600080fd5b60007fffffffff0000000000000000000000000000000000000000000000000000000082169050919050565b611de781611db2565b8114611df257600080fd5b50565b600081359050611e0481611dde565b92915050565b600060208284031215611e2057611e1f611da8565b5b6000611e2e84828501611df5565b91505092915050565b60008115159050919050565b611e4c81611e37565b82525050565b6000602082019050611e676000830184611e43565b92915050565b600081519050919050565b600082825260208201905092915050565b60005b83811015611ea7578082015181840152602081019050611e8c565b83811115611eb6576000848401525b50505050565b6000601f19601f8301169050919050565b6000611ed882611e6d565b611ee28185611e78565b9350611ef2818560208601611e89565b611efb81611ebc565b840191505092915050565b60006020820190508181036000830152611f208184611ecd565b905092915050565b6000819050919050565b611f3b81611f28565b8114611f4657600080fd5b50565b600081359050611f5881611f32565b92915050565b600060208284031215611f7457611f73611da8565b5b6000611f8284828501611f49565b91505092915050565b600073ffffffffffffffffffffffffffffffffffffffff82169050919050565b6000611fb682611f8b565b9050919050565b611fc681611fab565b82525050565b6000602082019050611fe16000830184611fbd565b92915050565b611ff081611fab565b8114611ffb57600080fd5b50565b60008135905061200d81611fe7565b92915050565b6000806040838503121561202a57612029611da8565b5b600061203885828601611ffe565b925050602061204985828601611f49565b9150509250929050565b60008060006060848603121561206c5761206b611da8565b5b600061207a86828701611ffe565b935050602061208b86828701611ffe565b925050604061209c86828701611f49565b9150509250925092565b6000602082840312156120bc576120bb611da8565b5b60006120ca84828501611ffe565b91505092915050565b6120dc81611f28565b82525050565b60006020820190506120f760008301846120d3565b92915050565b61210681611e37565b811461211157600080fd5b50565b600081359050612123816120fd565b92915050565b600080604083850312156121405761213f611da8565b5b600061214e85828601611ffe565b925050602061215f85828601612114565b9150509250929050565b600080fd5b600080fd5b7f4e487b7100000000000000000000000000000000000000000000000000000000600052604160045260246000fd5b6121ab82611ebc565b810181811067ffffffffffffffff821117156121ca576121c9612173565b5b80604052505050565b60006121dd611d9e565b90506121e982826121a2565b919050565b600067ffffffffffffffff82111561220957612208612173565b5b61221282611ebc565b9050602081019050919050565b82818337600083830152505050565b600061224161223c846121ee565b6121d3565b90508281526020810184848401111561225d5761225c61216e565b5b61226884828561221f565b509392505050565b600082601f83011261228557612284612169565b5b813561229584826020860161222e565b91505092915050565b600080600080608085870312156122b8576122b7611da8565b5b60006122c687828801611ffe565b94505060206122d787828801611ffe565b93505060406122e887828801611f49565b925050606085013567ffffffffffffffff81111561230957612308611dad565b5b61231587828801612270565b91505092959194509250565b6000806040838503121561233857612337611da8565b5b600061234685828601611ffe565b925050602061235785828601611ffe565b9150509250929050565b7f4e487b7100000000000000000000000000000000000000000000000000000000600052602260045260246000fd5b600060028204905060018216806123a857607f821691505b602082108114156123bc576123bb612361565b5b50919050565b7f4552433732313a20617070726f76616c20746f2063757272656e74206f776e6560008201527f7200000000000000000000000000000000000000000000000000000000000000602082015250565b600061241e602183611e78565b9150612429826123c2565b604082019050919050565b6000602082019050818103600083015261244d81612411565b9050919050565b7f4552433732313a20617070726f76652063616c6c6572206973206e6f7420746f60008201527f6b656e206f776e6572206e6f7220617070726f76656420666f7220616c6c0000602082015250565b60006124b0603e83611e78565b91506124bb82612454565b604082019050919050565b600060208201905081810360008301526124df816124a3565b9050919050565b600081905092915050565b7f3c73766720786d6c6e733d22687474703a2f2f7777772e77332e6f72672f323060008201527f30302f73766722207072657365727665417370656374526174696f3d22784d6960208201527f6e594d696e206d656574222076696577426f783d22302030203335302033353060408201527f223e000000000000000000000000000000000000000000000000000000000000606082015250565b60006125996062836124e6565b91506125a4826124f1565b606282019050919050565b7f3c7374796c653e2e62617365207b2066696c6c3a2070696e6b3b20666f6e742d60008201527f66616d696c793a2073657269663b20666f6e742d73697a653a20313470783b2060208201527f7d3c2f7374796c653e0000000000000000000000000000000000000000000000604082015250565b60006126316049836124e6565b915061263c826125af565b604982019050919050565b7f3c726563742077696474683d223130302522206865696768743d22313030252260008201527f2066696c6c3d22626c61636b22202f3e00000000000000000000000000000000602082015250565b60006126a36030836124e6565b91506126ae82612647565b603082019050919050565b7f3c7465787420783d223530252220793d223430252220636c6173733d2262617360008201527f652220646f6d696e616e742d626173656c696e653d226d6964646c652220746560208201527f78742d616e63686f723d226d6964646c65223e00000000000000000000000000604082015250565b600061273b6053836124e6565b9150612746826126b9565b605382019050919050565b7f57617272696f7200000000000000000000000000000000000000000000000000600082015250565b60006127876007836124e6565b915061279282612751565b600782019050919050565b7f3c2f746578743e00000000000000000000000000000000000000000000000000600082015250565b60006127d36007836124e6565b91506127de8261279d565b600782019050919050565b7f3c7465787420783d223530252220793d223530252220636c6173733d2262617360008201527f652220646f6d696e616e742d626173656c696e653d226d6964646c652220746560208201527f78742d616e63686f723d226d6964646c65223e00000000000000000000000000604082015250565b600061286b6053836124e6565b9150612876826127e9565b605382019050919050565b7f4c6576656c733a20000000000000000000000000000000000000000000000000600082015250565b60006128b76008836124e6565b91506128c282612881565b600882019050919050565b60006128d882611e6d565b6128e281856124e6565b93506128f2818560208601611e89565b80840191505092915050565b7f3c2f7376673e0000000000000000000000000000000000000000000000000000600082015250565b60006129346006836124e6565b915061293f826128fe565b600682019050919050565b60006129558261258c565b915061296082612624565b915061296b82612696565b91506129768261272e565b91506129818261277a565b915061298c826127c6565b91506129978261285e565b91506129a2826128aa565b91506129ae82846128cd565b91506129b9826127c6565b91506129c482612927565b915081905092915050565b7f646174613a696d6167652f7376672b786d6c3b6261736536342c000000000000600082015250565b6000612a05601a836124e6565b9150612a10826129cf565b601a82019050919050565b6000612a26826129f8565b9150612a3282846128cd565b915081905092915050565b7f4552433732313a2063616c6c6572206973206e6f7420746f6b656e206f776e6560008201527f72206e6f7220617070726f766564000000000000000000000000000000000000602082015250565b6000612a99602e83611e78565b9150612aa482612a3d565b604082019050919050565b60006020820190508181036000830152612ac881612a8c565b9050919050565b7f506c656173652075736520616e206578697374696e6720746f6b656e00000000600082015250565b6000612b05601c83611e78565b9150612b1082612acf565b602082019050919050565b60006020820190508181036000830152612b3481612af8565b9050919050565b7f596f75206d757374206f776e207468697320746f6b656e20746f20747261696e60008201527f2069740000000000000000000000000000000000000000000000000000000000602082015250565b6000612b97602383611e78565b9150612ba282612b3b565b604082019050919050565b60006020820190508181036000830152612bc681612b8a565b9050919050565b7f4e487b7100000000000000000000000000000000000000000000000000000000600052601160045260246000fd5b6000612c0782611f28565b9150612c1283611f28565b9250827fffffffffffffffffffffffffffffffffffffffffffffffffffffffffffffffff03821115612c4757612c46612bcd565b5b828201905092915050565b7f7b00000000000000000000000000000000000000000000000000000000000000600082015250565b6000612c886001836124e6565b9150612c9382612c52565b600182019050919050565b7f226e616d65223a2022436861696e20417964656e202300000000000000000000600082015250565b6000612cd46016836124e6565b9150612cdf82612c9e565b601682019050919050565b7f222c000000000000000000000000000000000000000000000000000000000000600082015250565b6000612d206002836124e6565b9150612d2b82612cea565b600282019050919050565b7f226465736372697074696f6e223a2022417964656e73205370656369616c204e60008201527f465473204f6e20636861696e222c000000000000000000000000000000000000602082015250565b6000612d92602e836124e6565b9150612d9d82612d36565b602e82019050919050565b7f22696d616765223a202200000000000000000000000000000000000000000000600082015250565b6000612dde600a836124e6565b9150612de982612da8565b600a82019050919050565b7f2200000000000000000000000000000000000000000000000000000000000000600082015250565b6000612e2a6001836124e6565b9150612e3582612df4565b600182019050919050565b7f7d00000000000000000000000000000000000000000000000000000000000000600082015250565b6000612e766001836124e6565b9150612e8182612e40565b600182019050919050565b6000612e9782612c7b565b9150612ea282612cc7565b9150612eae82856128cd565b9150612eb982612d13565b9150612ec482612d85565b9150612ecf82612dd1565b9150612edb82846128cd565b9150612ee682612e1d565b9150612ef182612e69565b91508190509392505050565b7f646174613a6170706c69636174696f6e2f6a736f6e3b6261736536342c000000600082015250565b6000612f33601d836124e6565b9150612f3e82612efd565b601d82019050919050565b6000612f5482612f26565b9150612f6082846128cd565b915081905092915050565b7f4552433732313a20696e76616c696420746f6b656e2049440000000000000000600082015250565b6000612fa1601883611e78565b9150612fac82612f6b565b602082019050919050565b60006020820190508181036000830152612fd081612f94565b9050919050565b7f4552433732313a2061646472657373207a65726f206973206e6f74206120766160008201527f6c6964206f776e65720000000000000000000000000000000000000000000000602082015250565b6000613033602983611e78565b915061303e82612fd7565b604082019050919050565b6000602082019050818103600083015261306281613026565b9050919050565b600061307582856128cd565b915061308182846128cd565b91508190509392505050565b7f4e487b7100000000000000000000000000000000000000000000000000000000600052601260045260246000fd5b60006130c782611f28565b91506130d283611f28565b9250826130e2576130e161308d565b5b828204905092915050565b60006130f882611f28565b915061310383611f28565b9250817fffffffffffffffffffffffffffffffffffffffffffffffffffffffffffffffff048311821515161561313c5761313b612bcd565b5b828202905092915050565b7f45524337323155524953746f726167653a2055524920736574206f66206e6f6e60008201527f6578697374656e7420746f6b656e000000000000000000000000000000000000602082015250565b60006131a3602e83611e78565b91506131ae82613147565b604082019050919050565b600060208201905081810360008301526131d281613196565b9050919050565b7f4552433732313a207472616e736665722066726f6d20696e636f72726563742060008201527f6f776e6572000000000000000000000000000000000000000000000000000000602082015250565b6000613235602583611e78565b9150613240826131d9565b604082019050919050565b6000602082019050818103600083015261326481613228565b9050919050565b7f4552433732313a207472616e7366657220746f20746865207a65726f2061646460008201527f7265737300000000000000000000000000000000000000000000000000000000602082015250565b60006132c7602483611e78565b91506132d28261326b565b604082019050919050565b600060208201905081810360008301526132f6816132ba565b9050919050565b600061330882611f28565b915061331383611f28565b92508282101561332657613325612bcd565b5b828203905092915050565b600061333c82611f28565b91507fffffffffffffffffffffffffffffffffffffffffffffffffffffffffffffffff82141561336f5761336e612bcd565b5b600182019050919050565b600061338582611f28565b915061339083611f28565b9250826133a05761339f61308d565b5b828206905092915050565b7f4e487b7100000000000000000000000000000000000000000000000000000000600052603260045260246000fd5b7f4552433732313a20617070726f766520746f2063616c6c657200000000000000600082015250565b6000613410601983611e78565b915061341b826133da565b602082019050919050565b6000602082019050818103600083015261343f81613403565b9050919050565b7f4552433732313a207472616e7366657220746f206e6f6e20455243373231526560008201527f63656976657220696d706c656d656e7465720000000000000000000000000000602082015250565b60006134a2603283611e78565b91506134ad82613446565b604082019050919050565b600060208201905081810360008301526134d181613495565b9050919050565b600081519050919050565b600082825260208201905092915050565b60006134ff826134d8565b61350981856134e3565b9350613519818560208601611e89565b61352281611ebc565b840191505092915050565b60006080820190506135426000830187611fbd565b61354f6020830186611fbd565b61355c60408301856120d3565b818103606083015261356e81846134f4565b905095945050505050565b60008151905061358881611dde565b92915050565b6000602082840312156135a4576135a3611da8565b5b60006135b284828501613579565b91505092915050565b7f4552433732313a206d696e7420746f20746865207a65726f2061646472657373600082015250565b60006135f1602083611e78565b91506135fc826135bb565b602082019050919050565b60006020820190508181036000830152613620816135e4565b9050919050565b7f4552433732313a20746f6b656e20616c7265616479206d696e74656400000000600082015250565b600061365d601c83611e78565b915061366882613627565b602082019050919050565b6000602082019050818103600083015261368c81613650565b905091905056fe4142434445464748494a4b4c4d4e4f505152535455565758595a6162636465666768696a6b6c6d6e6f707172737475767778797a303132333435363738392b2fa2646970667358221220c785173d7c606632de4fbbe71caeb79a3c8c79cf9b5f642c8c81a2fba9c92d2d64736f6c63430008090033",
  "linkReferences": {},
  "deployedLinkReferences": {}
}